:020000040800F2
:10000000000001206DD10108BDD10108BDD101085A
:10001000BDD10108BDD10108BDD10108000000001B
:10002000000000000000000000000000BDD1010839
:10003000BDD1010800000000BDD10108FF5C00082F
:10004000BDD10108BDD10108BDD10108BDD1010854
:10005000BDD10108BDD10108415F0008475F00081C
:100060004D5F0008535F0008595F0008BDD10108CB
:10007000BDD10108BDD10108BDD10108BDD1010824
:10008000BDD10108BDD10108BDD10108BDD1010814
:1000900000000000BDD101085F5F0008BDD101086C
:1000A00039570008BDD101084D57000851570008C5
:1000B0006557000879570008F9E8000805E90008C5
:1000C00011E900081DE90008BDD10108BDD10108F2
:1000D000A96B0008C16B0008DD6B0008BDD10108E9
:1000E000BDD10108755F0008BDD10108BDD101086F
:1000F000BDD101080000000000000000BDD10108D2
:1001000029E9000835E90008ADDD0108BDD1010885
:10011000BDD10108BDD10108BDD10108BDD1010883
:10012000BDD10108BDD10108BDD10108BDD1010873
:08013000BDD10108BDD1010899
:1001400081F0004102E000BF83F0004330B54FEA88
:1001500041044FEA430594EA050F08BF90EA020FF5
:100160001FBF54EA000C55EA020C7FEA645C7FEA88
:10017000655C00F0E2804FEA5454D4EB5555B8BFAB
:100180006D420CDD2C4480EA020281EA030382EA1C
:10019000000083EA010180EA020281EA0303362DAE
:1001A00088BF30BD11F0004F4FEA01314FF4801C81
:1001B0004CEA113102D0404261EB410113F0004F93
:1001C0004FEA03334CEA133302D0524263EB43034A
:1001D00094EA050F00F0A780A4F10104D5F1200EE8
:1001E0000DDB02FA0EFC22FA05F2801841F1000143
:1001F00003FA0EF2801843FA05F359410EE0A5F117
:1002000020050EF1200E012A03FA0EFC28BF4CF047
:10021000020C43FA05F3C01851EBE37101F00045FD
:1002200007D54FF0000EDCF1000C7EEB00006EEB0A
:100230000101B1F5801F1BD3B1F5001F0CD3490894
:100240005FEA30004FEA3C0C04F101044FEA4452EB
:1002500012F5800F80F09A80BCF1004F08BF5FEA72
:10026000500C50F1000041EB045141EA050130BD52
:100270005FEA4C0C404141EB0101013C28BFB1F564
:10028000801FE9D291F0000F04BF01460020B1FAAF
:1002900081F308BF2033A3F10B03B3F120020CDA82
:1002A0000C3208DD02F1140CC2F10C0201FA0CF060
:1002B00021FA02F10CE002F11402D8BFC2F1200CC5
:1002C00001FA02F120FA0CFCDCBF41EA0C0190407B
:1002D000E41AA2BF01EB0451294330BD6FEA0404C4
:1002E0001F3C1CDA0C340EDC04F11404C4F12002AF
:1002F00020FA04F001FA02F340EA030021FA04F3C1
:1003000045EA030130BDC4F10C04C4F1200220FA17
:1003100002F001FA04F340EA0300294630BD21FA55
:1003200004F0294630BD94F0000F83F4801306BF1B
:1003300081F480110134013D4EE77FEA645C18BF0F
:100340007FEA655C29D094EA050F08BF90EA020FA6
:1003500005D054EA000C04BF1946104630BD91EA9E
:10036000030F1EBF0021002030BD5FEA545C05D1A1
:100370004000494128BF41F0004130BD14F58004E0
:100380003CBF01F5801130BD01F0004545F0FE4154
:1003900041F470014FF0000030BD7FEA645C1ABF89
:1003A000194610467FEA655C1CBF0B46024650EAC0
:1003B000013406BF52EA033591EA030F41F40021EC
:1003C00030BD00BF90F0000F04BF0021704730B572
:1003D0004FF4806404F132044FF000054FF0000147
:1003E00050E700BF90F0000F04BF0021704730B508
:1003F0004FF4806404F1320410F0004548BF4042DD
:100400004FF000013EE700BF42004FEAE2014FEA31
:1004100031014FEA02701FBF12F07F4393F07F4F0C
:1004200081F06051704732F07F4208BF704793F00F
:100430007F4F04BF41F40021704730B54FF4607422
:1004400001F0004521F000411CE700BF50EA010225
:1004500008BF704730B54FF000050AE050EA0102CE
:1004600008BF704730B511F0004502D5404261EB3E
:1004700041014FF4806404F132045FEA915C3FF47F
:10048000D8AE4FF003025FEADC0C18BF03325FEA1C
:10049000DC0C18BF033202EBDC02C2F1200300FACD
:1004A00003FC20FA02F001FA03FE40EA0E0021FAF2
:1004B00002F11444BDE600BF70B54FF0FF0C4CF4E0
:1004C000E06C1CEA11541DBF1CEA135594EA0C0F92
:1004D00095EA0C0F00F0DEF82C4481EA030621EACD
:1004E0004C5123EA4C5350EA013518BF52EA033508
:1004F00041F4801143F4801338D0A0FB02CE4FF0BA
:100500000005E1FB02E506F00042E0FB03E54FF0E9
:100510000006E1FB03569CF0000F18BF4EF0010EE1
:10052000A4F1FF04B6F5007F64F5407404D25FEADD
:100530004E0E6D4146EB060642EAC62141EA555190
:100540004FEAC52040EA5E504FEACE2EB4F1FD0CD2
:1005500088BFBCF5E06F1ED8BEF1004F08BF5FEA50
:10056000500E50F1000041EB045170BD06F0004602
:1005700046EA010140EA020081EA0301B4EB5C04AF
:10058000C2BFD4EB0C0541EA045170BD41F48011A7
:100590004FF0000E013C00F3AB8014F1360FDEBFCC
:1005A000002001F0004170BDC4F10004203C35DAA8
:1005B0000C341BDC04F11404C4F1200500FA05F32B
:1005C00020FA04F001FA05F240EA020001F00042CC
:1005D00021F0004110EBD37021FA04F642EB060142
:1005E0005EEA430E08BF20EAD37070BDC4F10C046C
:1005F000C4F1200500FA04F320FA05F001FA04F230
:1006000040EA020001F0004110EBD37041F100011B
:100610005EEA430E08BF20EAD37070BDC4F1200526
:1006200000FA05F24EEA020E20FA04F301FA05F28E
:1006300043EA020321FA04F001F0004121FA04F236
:1006400020EA020000EBD3705EEA430E08BF20EA06
:10065000D37070BD94F0000F0FD101F00046400040
:1006600041EB010111F4801F08BF013CF7D041EAC2
:10067000060195F0000F18BF704703F000465200C6
:1006800043EB030313F4801F08BF013DF7D043EA97
:100690000603704794EA0C0F0CEA135518BF95EA4D
:1006A0000C0F0CD050EA410618BF52EA4306D1D1D4
:1006B00081EA030101F000414FF0000070BD50EAF3
:1006C000410606BF1046194652EA430619D094EA7D
:1006D0000C0F02D150EA013613D195EA0C0F05D167
:1006E00052EA03361CBF104619460AD181EA0301BB
:1006F00001F0004141F0FE4141F470014FF0000073
:1007000070BD41F0FE4141F4780170BD70B54FF00D
:10071000FF0C4CF4E06C1CEA11541DBF1CEA13558D
:1007200094EA0C0F95EA0C0F00F0A7F8A4EB05046F
:1007300081EA030E52EA03354FEA013100F0888066
:100740004FEA03334FF0805545EA131343EA12632F
:100750004FEA022245EA111545EA10654FEA0026E4
:100760000EF000419D4208BF964244F1FD0404F59D
:10077000407402D25B084FEA3202B61A65EB0305F9
:100780005B084FEA32024FF480104FF4002CB6EBB6
:10079000020E75EB030E22BFB61A754640EA0C0036
:1007A0005B084FEA3202B6EB020E75EB030E22BF76
:1007B000B61A754640EA5C005B084FEA3202B6EBB7
:1007C000020E75EB030E22BFB61A754640EA9C0076
:1007D0005B084FEA3202B6EB020E75EB030E22BF46
:1007E000B61A754640EADC0055EA060E18D04FEA04
:1007F000051545EA16754FEA06164FEAC30343EAA4
:1008000052734FEAC2025FEA1C1CC0D111F4801F70
:100810000BD141EA00014FF000004FF0004CB6E769
:1008200011F4801F04BF01430020B4F1FD0C88BF08
:10083000BCF5E06F3FF6AFAEB5EB030C04BFB6EB13
:10084000020C5FEA500C50F1000041EB045170BD06
:100850000EF0004E4EEA113114EB5C04C2BFD4EB33
:100860000C0541EA045170BD41F480114FF0000EB7
:10087000013C90E645EA060E8DE60CEA135594EA33
:100880000C0F08BF95EA0C0F3FF43BAF94EA0C0F36
:100890000AD150EA01347FF434AF95EA0C0F7FF4AB
:1008A00025AF104619462CE795EA0C0F06D152EAFF
:1008B00003353FF4FDAE1046194622E750EA4106E3
:1008C00018BF52EA43067FF4C5AE50EA41047FF4F4
:1008D0000DAF52EA43057FF4EBAE12E74FF0FF3C59
:1008E00006E000BF4FF0010C02E000BF4FF0010C2A
:1008F0004DF804CD4FEA410C7FEA6C5C4FEA430CA3
:1009000018BF7FEA6C5C1BD001B050EA410C0CBFF1
:1009100052EA430C91EA030F02BF90EA020F002053
:10092000704710F1000F91EA030F58BF994208BFBA
:1009300090422CBFD8176FEAE37040F00100704777
:100940004FEA410C7FEA6C5C02D150EA013C07D1CE
:100950004FEA430C7FEA6C5CD6D152EA033CD3D019
:100960005DF8040B704700BF8446104662468C4613
:100970001946634600E000BF01B5FFF7B7FF002846
:1009800048BF10F1000F01BD4DF808EDFFF7F4FF6F
:100990000CBF012000205DF808FB00BF4DF808EDFA
:1009A000FFF7EAFF34BF012000205DF808FB00BF1D
:1009B0004DF808EDFFF7E0FF94BF012000205DF83F
:1009C00008FB00BF4DF808EDFFF7CEFF94BF0120F4
:1009D00000205DF808FB00BF4DF808EDFFF7C4FFED
:1009E00034BF012000205DF808FB00BF4FEA410C36
:1009F0007FEA6C5C02D150EA013C0AD14FEA430C19
:100A00007FEA6C5C02D152EA033C02D14FF0000055
:100A100070474FF0010070474FEA410212F5001293
:100A200015D211D56FF47873B3EB625212D94FEA35
:100A3000C12343F0004343EA505311F0004F23FA1F
:100A400002F018BF404270474FF00000704750EA74
:100A5000013005D111F0004008BF6FF00040704731
:100A60004FF00000704700BF4A0011D212F500128B
:100A700011D20DD56FF47873B3EB62520ED44FEAF6
:100A8000C12343F0004343EA505323FA02F0704776
:100A90004FF00000704750EA013002D14FF0FF30B4
:100AA00070474FF0000070474FEA4102B2F1E04357
:100AB00024BFB3F5001CDCF1FE5C0DD901F0004C45
:100AC0004FEAC0024CEA5070B2F1004F40EB830095
:100AD00008BF20F00100704711F0804F21D113F1C1
:100AE0003872BCBF01F00040704741F480114FEAFA
:100AF0005252C2F11802C2F1200C10FA0CF320FA83
:100B000002F018BF40F001004FEAC1234FEAD3239F
:100B100003FA0CFC40EA0C0023FA02F34FEA430309
:100B2000CCE77FEA625307D150EA01331EBF4FF092
:100B3000FE4040F44000704701F0004040F0FE40AD
:100B400040F40000704700BF80F0004002E000BFAA
:100B500081F0004142001FBF5FEA410392EA030FA8
:100B60007FEA226C7FEA236C6AD04FEA1262D2EBF2
:100B70001363C1BFD218414048404140B8BF5B42F7
:100B8000192B88BF704710F0004F40F4000020F090
:100B90007F4018BF404211F0004F41F4000121F0A6
:100BA0007F4118BF494292EA030F3FD0A2F10102F0
:100BB00041FA03FC10EB0C00C3F1200301FA03F12E
:100BC00000F0004302D5494260EB4000B0F5000F51
:100BD00013D3B0F1807F06D340084FEA310102F110
:100BE0000102FE2A51D2B1F1004F40EBC25008BFC2
:100BF00020F0010040EA03007047490040EB00008C
:100C0000013A28BFB0F5000FEDD2B0FA80FCACF18C
:100C1000080CB2EB0C0200FA0CF0AABF00EBC250B9
:100C200052421843BCBFD0401843704792F0000FA7
:100C300081F4000106BF80F400000132013BB5E7FA
:100C40004FEA41037FEA226C18BF7FEA236C21D070
:100C500092EA030F04D092F0000F08BF08467047D5
:100C600090EA010F1CBF0020704712F07F4F04D1A3
:100C7000400028BF40F00040704712F100723CBFB6
:100C800000F50000704700F0004343F0FE4040F4E0
:100C9000000070477FEA226216BF08467FEA23639E
:100CA0000146420206BF5FEA412390EA010F40F489
:100CB000800070474FF0000304E000BF10F00043D5
:100CC00048BF40425FEA000C08BF704743F09643BC
:100CD00001464FF000001CE050EA010208BF7047D7
:100CE0004FF000030AE000BF50EA010208BF70475E
:100CF00011F0004302D5404261EB41015FEA010C73
:100D000002BF84460146002043F0B64308BFA3F16A
:100D10008053A3F50003BCFA8CF2083AA3EBC2534C
:100D200010DB01FA02FC634400FA02FCC2F120026B
:100D3000BCF1004F20FA02F243EB020008BF20F0A2
:100D40000100704702F1200201FA02FCC2F1200208
:100D500050EA4C0021FA02F243EB020008BF20EAFD
:100D6000DC7070474FF0FF0C1CEAD0521EBF1CEA2B
:100D7000D15392EA0C0F93EA0C0F6FD01A4480EA19
:100D8000010C400218BF5FEA41211ED04FF0006302
:100D900043EA501043EA5111A0FB01310CF000402E
:100DA000B1F5000F3EBF490041EAD3715B0040EA54
:100DB000010062F17F02FD2A1DD8B3F1004F40EB24
:100DC000C25008BF20F00100704790F0000F0CF0F7
:100DD000004C08BF49024CEA502040EA51207F3ABB
:100DE000C2BFD2F1FF0340EAC250704740F4000096
:100DF0004FF00003013A5DDC12F1190FDCBF00F087
:100E000000407047C2F10002410021FA02F1C2F134
:100E1000200200FA02FC5FEA310040F1000053EAD0
:100E20004C0308BF20EADC70704792F0000F00F01E
:100E3000004C02BF400010F4000F013AF9D040EA24
:100E40000C0093F0000F01F0004C02BF490011F4B8
:100E5000000F013BF9D041EA0C018FE70CEAD153B6
:100E600092EA0C0F18BF93EA0C0F0AD030F0004C36
:100E700018BF31F0004CD8D180EA010000F00040EA
:100E8000704790F0000F17BF90F0004F084691F0A8
:100E9000000F91F0004F14D092EA0C0F01D14202E2
:100EA0000FD193EA0C0F03D14B0218BF084608D1AB
:100EB00080EA010000F0004040F0FE4040F40000F5
:100EC000704740F0FE4040F4400070474FF0FF0C88
:100ED0001CEAD0521EBF1CEAD15392EA0C0F93EACF
:100EE0000C0F69D0A2EB030280EA010C49024FEA21
:100EF000402037D04FF0805343EA111143EA1013DA
:100F00000CF000408B4238BF5B0042F17D024FF491
:100F1000000C8B4224BF5B1A40EA0C00B3EB510F6C
:100F200024BFA3EB510340EA5C00B3EB910F24BF55
:100F3000A3EB910340EA9C00B3EBD10F24BFA3EBDA
:100F4000D10340EADC001B0118BF5FEA1C1CE0D1A2
:100F5000FD2A3FF650AF8B4240EBC25008BF20F055
:100F6000010070470CF0004C4CEA50207F32C2BFA9
:100F7000D2F1FF0340EAC250704740F400004FF046
:100F80000003013A37E792F0000F00F0004C02BF77
:100F9000400010F4000F013AF9D040EA0C0093F041
:100FA000000F01F0004C02BF490011F4000F013B9B
:100FB000F9D041EA0C0195E70CEAD15392EA0C0F03
:100FC00008D142027FF47DAF93EA0C0F7FF470AF3B
:100FD000084676E793EA0C0F04D14B023FF44CAF7E
:100FE00008466EE730F0004C18BF31F0004CCAD113
:100FF00030F000427FF45CAF31F000437FF43CAF4F
:101000005FE700BF4FF0FF3C06E000BF4FF0010C70
:1010100002E000BF4FF0010C4DF804CD4FEA400252
:101020004FEA41037FEA226C18BF7FEA236C11D09C
:1010300001B052EA530C18BF90EA010F58BFB2EB4F
:10104000030088BFC81738BF6FEAE17018BF40F0CF
:10105000010070477FEA226C02D15FEA402C05D183
:101060007FEA236CE4D15FEA412CE1D05DF8040B08
:10107000704700BF844608466146FFE70FB5FFF79B
:10108000C9FF002848BF10F1000F0FBD4DF808ED53
:10109000FFF7F4FF0CBF012000205DF808FB00BF44
:1010A0004DF808EDFFF7EAFF34BF012000205DF89E
:1010B00008FB00BF4DF808EDFFF7E0FF94BF0120EB
:1010C00000205DF808FB00BF4DF808EDFFF7D2FFE8
:1010D00094BF012000205DF808FB00BF4DF808ED2B
:1010E000FFF7C8FF34BF012000205DF808FB00BFF8
:1010F0004FEA40024FEA41037FEA226C02D15FEAE5
:10110000402C08D17FEA236C02D15FEA412C02D146
:101110004FF0000070474FF0010070474FEA400267
:10112000B2F1FE4F0FD34FF09E03B3EB12620DD915
:101130004FEA002343F0004310F0004F23FA02F07F
:1011400018BF404270474FF00000704712F1610F26
:1011500001D1420205D110F0004008BF6FF00040FD
:1011600070474FF00000704742000ED2B2F1FE4FC0
:101170000BD34FF09E03B3EB126209D44FEA002366
:1011800043F0004323FA02F070474FF0000070472D
:1011900012F1610F01D1420202D14FF0FF307047CE
:1011A0004FF00000704700BF53B94AB9002908BF8B
:1011B00000281CBF4FF0FF314FF0FF3000F00CB89B
:1011C000ADF1080C6DE904CE1CF0C0F9DDF804E0C7
:1011D000DDE9022304B07047704700BF10F8012B0F
:1011E00011F8013B012A28BF9A42F7D0D01A704764
:1011F000034613F8012B002AFBD1181A0138704757
:1012000001F0FF01102A2BDB10F0070F08D010F8B7
:10121000013B013A8B422DD010F0070F42B3F6D1BB
:10122000F0B441EA012141EA014122F007047FF0D4
:1012300000070023F0E80256083C85EA010586EA2B
:10124000010685FA47F5A3FA87F586FA47F6A5FA67
:1012500087F68EB9EED1F0BC01F0FF0102F0070273
:1012600032B110F8013B013A83EA010313B1F8D11E
:101270000020704701387047002D06BF35460338FF
:10128000073815F0010F07D1013015F4807F02BF38
:10129000013015F4C03F0130F0BC0138704700BF89
:1012A00010B5054C237833B9044B13B10448AFF3A0
:1012B00000800123237010BDD80100200000000031
:1012C0009410020808B5034B1BB103490348AFF360
:1012D000008008BD00000000DC010020941002081E
:1012E00000B59BB04422002109A81EF000FF18227F
:1012F000002102A81EF0FBFE144A136823F4C06309
:1013000043F400731360136803F4C0630193019BFB
:101310002023089301210023B02208A8CDE910134F
:10132000CDE9122301F080FF00B1FEE74F23CDE9A4
:101330000230CDE90400CDE90600022102A802F046
:101340000FFA00B1FEE71BB05DF804FB0004005883
:101350007047000038B5104C237805460BB90120C2
:1013600038BD01F051FF22784FF47A73B3FBF2F3EA
:10137000B0FBF3F000F0C8FC04460028EFD10F2DBD
:10138000EDD8024629464FF0FF3000F06BFC034BCE
:1013900020461D60E4E700BF00000020040000209C
:1013A00010B5032000F04CFC01F02EFF064B186036
:1013B0000020FFF7CFFF044618B9FFF7C9FF20460A
:1013C00010BD0124FBE700BF40000020034A044B8E
:1013D00011681B780B441360704700BFF4010020B4
:1013E00000000020014B1868704700BFF401002086
:1013F0008068C0F380007047F7B50023019304466E
:10140000002800F0E980856D25B904F0EFFAE56564
:1014100084F8545023689A68D00040F1A1809A68FB
:10142000D10000F1B480A26D42F01002A265E26D1D
:1014300042F00102E26501251846FFF7D9FFA26DCF
:1014400002F01002024340F0C980A26D206922F42C
:10145000817242F00202A2659A68D2075DD4226BC3
:10146000A67E94F82CC0003A18BF01221703D4E9D5
:1014700002120A43217E42EA8132617E42EAC1328F
:1014800042EA4632002842EA4C02B4BF20F0004152
:101490004FF400113A430A4394F82010012903D174
:1014A000002E76D142F48032616A21B1A66A01F43D
:1014B000E07131430A43D968E66C21F4FE3121F42E
:1014C000FF711143D96094F83C206168012A01F052
:1014D000404C4CEA060609D1D4E910273A4332437E
:1014E000A66C324342EA0C0242F001061F693E4AF2
:1014F0003A4032431A6121F00042B2F1804F0CD0E1
:10150000B1F1004F09D0394ED6F8082701F4701117
:1015100022F470120A43C6F808275A69666BA16B59
:1015200022F0070232435A615A6922F0700242EAFD
:1015300001125A61002835D19A6A62F00F029A624C
:101540005B6903F007039E423CD10023E365A36D72
:1015500023F0030343F00103A365284603B0F0BD65
:101560009A68234922F0104222F0170242F080527A
:101570009A60204A1268B2FBF1F2013252000192E5
:10158000019A002A3FF44BAF019A013AF7E7002590
:1015900052E7A16D41F02001A165E16D41F001012B
:1015A000E16581E7B0F5001FCAD19A6AE269013AA4
:1015B00092006FF00F0102F01C0201FA02F2216E9C
:1015C0000A43BCE7A36D23F0120343F01003A365A5
:1015D000E36D43F00103E3650125BEE7A36D43F02E
:1015E0001003A365F8E700BF02FCFF1F00200140C5
:1015F000400D030040000020F8B54569082D044661
:101600000E460AD00368DB68D80705D5A36D43F002
:101610002003A3650120F8BD0425FFF7E3FE07467C
:1016200023681A682A4220D0A26D42F40072A26593
:10163000DA6812F4406F14D1A27E92B91A681207C8
:101640000FD51846FFF7D4FE20BB5A6822F00C02D3
:101650005A60A26D22F4807222F0010242F001026F
:10166000A265227EFAB10020D5E7711CD9D0FFF720
:10167000B9FEC01BB04201D8002ED1D123681B682F
:101680002B40CDD1A26D84F8543042F00402A26503
:101690000320C0E7A26D42F02002A265E26D42F095
:1016A0000102E265DDE70C221A60DCE70368186CD2
:1016B00070470000F7B50023019390F85430012BD8
:1016C000044600F0C08005680269012380F85430A8
:1016D0002846FFF78DFE002840F0AF8048680B6871
:1016E000022822F004027ED0B2F1004FC3F3110EA3
:1016F00035D1AA6A42EA0E02AA628A68686902EAD9
:10170000032222F07C4222F0FF0220EA03210A4356
:10171000002B6A611DDA4D4A4D4DD2F80817AB42D5
:1017200001F0E07043D10D0213D4D2F8083723F052
:10173000E073034343F40003C2F80837454B1A68CB
:10174000454BB2FBF3F20C2302FB03330193019BE5
:1017500053BB0020002384F8543003B0F0BD226E48
:1017600000F01F074FF00F0C0CFA07FC6FEA0C0695
:1017700022EA0C0CBEF1000F11D1C3F38462BA400F
:1017800042EA0C0222668008E26901309042B4D835
:10179000A86AC3F38362BA4006403243ACE793FAC7
:1017A000A3F2B2FA82F2EAE7019B013BCEE72B4DAE
:1017B000AB420BD1C901CCD4D2F8083723F0E07387
:1017C000034343F08073C2F80837C2E7244DAB42AD
:1017D000BFD14B02BDD4D2F8083723F0E0730343E6
:1017E00043F48003EFE7B2F1004F01BFAA6AC3F3ED
:1017F00011018A43AA62002BABDA154813498342D0
:10180000D1F8082709D1D1F8083702F0A07223F0E7
:10181000E0731A43C1F808279BE71048834204D1BC
:10182000D1F8083702F44002F1E70D48834290D125
:10183000D1F8083702F0C072E9E7A26D42F0200249
:10184000A265184686E7022087E700BF0020014016
:10185000001000B040000020400D0300004000B820
:10186000002000B4806D7047026838B50446104609
:10187000FFF7BEFD08B9002038BD9368990707D46B
:10188000936823F0004323F0170343F010039360A1
:10189000FFF7A8FD054623689B685B07EBD5FFF7BC
:1018A000A1FD401B0228F6D923689B685A07F2D590
:1018B000A36D43F01003A365E36D43F00103E365FB
:1018C0000120D9E773B50023026801939368DD070F
:1018D000044602D5002002B070BD9168214B194228
:1018E00009D0A36D43F01003A365E36D43F001033A
:1018F000E3650120EFE7936823F0004323F017032B
:1019000043F001039360184BD3F8083718021CD436
:10191000637E012BDED0FFF765FD144E054622687D
:101920001368DB07D6D49368D9075FBF9368334049
:1019300043F001039360FFF755FD401B0228EED9E9
:1019400023681B68DA07EAD4CBE7094B094A1B680E
:10195000B3FBF2F301330193019B002BD8D0019B21
:10196000013BF8E71700008000200140E8FFFF7FFF
:1019700040000020400D030038B504460068FFF722
:1019800037FD054620BB94F85430012B20D00123AD
:1019900084F854302046FFF795FFB0B9A36D226854
:1019A00023F4706323F0010343F48073A3651C23C5
:1019B000E065136084F85400936823F0004323F03B
:1019C000170343F00403936038BD84F85450FBE7D9
:1019D0000220F9E738B503689A680446900704D4F2
:1019E0009A68D10703D4002038BD9B68FBE79A684A
:1019F00002F00502012A19D19A6822F0004222F071
:101A0000170242F002029A6003221A60FFF7EAFC12
:101A1000054623689B68DB07E5D5FFF7E3FC401B21
:101A20000228F6D923689B68DA07F2D5A36D43F044
:101A30001003A365E36D43F00103E3650120D3E7E1
:101A400070B5044600284BD0836D43F002038365D4
:101A5000FFF70AFF054668B92046FFF7BBFF0546BA
:101A600008B90123A3652268936823F0104323F08B
:101A70001703936023685A6822F4677222F0030206
:101A80005A6040F29F321A60D968164A0A40DA60FA
:101A90005A6922F007025A6100269A6A9E621A6AFF
:101AA00002F0F0221A625A6A02F0F0225A62DA6AEE
:101AB00002F0F022DA621A6922F040421A610A4A00
:101AC000D2F8083723F0FE73C2F80837204603F037
:101AD000ADFFE6652666A66584F85460284670BDAD
:101AE0000125FBE700023E830020014010B590F87D
:101AF0005430012B044615D0012380F85430FFF7F1
:101B0000B3FE58B92046FFF765FF38B9A36D23F43B
:101B1000807323F0010343F00103A365002384F8DD
:101B2000543010BD0220FCE7F7B50023019390F874
:101B30005430012B04467FD0012380F85430FFF746
:101B400049FF23689A6812F00102054607D0A36D89
:101B500043F01003A365002384F854302DE0A16DF9
:101B6000364F21F4817141F00201A165DE68D96828
:101B700026F4FF4626F07C0621F40041360421F0CD
:101B80000301360CD96008209968394041F00041C2
:101B900099609968002913DA01990131019101993D
:101BA000B1F52E3FF5D3A36D23F0120343F01003DC
:101BB000A365002384F854300125284603B0F0BD06
:101BC000D3F8B410013801F07F010A44DCD19968E0
:101BD0001A48014041F001019960D3F8B41021F096
:101BE0007F0141EAD202C3F8B4209A68024042F071
:101BF00002029A60FFF7F6FB074623689A68D2074D
:101C000008D4DA683243DA60A36D23F0030343F0AB
:101C100001039FE7FFF7E6FBC01B0228EDD923680D
:101C20009B68D907E9D5A36D43F01003A365E36D65
:101C300043F00103E365BFE70225BEE7E8FFFF7F4E
:101C40000749CA6822F4E0620302120403F4E06365
:101C5000120C134343F0BF6343F40033CB6070476F
:101C600000ED00E0164B30B5DC68C4F30224C4F18B
:101C70000703251D042B28BF0423062D4FF0FF3535
:101C80008CBF033C002405FA03F321EA0303A540BB
:101C900022EA0502A340002843EA0203ACBF00F198
:101CA0006040084A4FEA0313B8BF00F00F00DBB2F0
:101CB000AABF00F56140135480F8003330BD00BF67
:101CC00000ED00E014ED00E0002807DB044A4109C4
:101CD000012300F01F00834042F82130704700BF0D
:101CE00000E100E000280CDB4309064900F01F007A
:101CF00020330122824041F82320BFF34F8FBFF3EE
:101D00006F8F704700E100E00138B0F1807F0BD2A7
:101D10004FF0E023054A5861F02182F8231000209B
:101D2000072298611A6170470120704700ED00E0BA
:101D30000028A1BF43094033054A52F82330A3BF0E
:101D400000F01F0023FA00F000F0010000207047AF
:101D500000E100E0002808DB4309044900F01F000F
:101D600001226033824041F82320704700E100E007
:101D7000704708B5FFF7FCFF08BD704710B5044673
:101D800008B9012010BD437F03F0FF0213B90277A9
:101D9000FFF7F3FF022363772379E3B92368134A3C
:101DA0005A619A6822F018029A6062792368D2B95F
:101DB0004FF0FF321A619A68616922F060020A43AB
:101DC0009A609A68A16922F080020A439A6001230E
:101DD00063770020D6E7D4E90212204600F008F825
:101DE0000028E2D0CDE72269E4E700BFB71DC104B7
:101DF000CB0710B50CD51F23013B1CD321FA03F4EC
:101E0000E407F9D5102A12D004D83AB1082A10D024
:101E100001200BE0182AFBD1062BF9D8006841619C
:101E2000836823F0180313438360002010BD072B41
:101E3000F3E70F2BF1E7102AEAD0E9D8002AE7D11F
:101E4000ECE710B5044640B10223037103F0A0FD96
:101E5000002020616071207110BD0120FCE710B5E9
:101E600004680122236801F0100102FA01F123EA5B
:101E7000010323600271002010BD034640B190F8B9
:101E80002520022A06D00422C263002280F82420E2
:101E9000012070470268806C116821F00E0111600A
:101EA000016821F480710160116821F00101116065
:101EB000D3E9100202F01C0101228A404260D3E9FA
:101EC000132151605A6D32B1116821F48071116093
:101ED000D3E9162151600122002083F8252083F8E0
:101EE0002400704708B590F82530022B03D0042356
:101EF000C363012008BD03681A6822F00E021A604D
:101F00001A6822F001021A60826C136823F480734D
:101F10001360D0E9101303F01C02012393404B60BF
:101F2000D0E913325A60436D33B11A6822F48072DB
:101F30001A60D0E916325A60012380F82530002358
:101F400080F82430836B03B198470020D2E790F8E3
:101F5000250070470A4A536943F4802330B5536122
:101F6000EFF3108472B60023CD58C5500433B3F597
:101F7000807FF9D11369DB03FCD484F3108830BD72
:101F800000400058064B5A69002ABFBF054A9A60B4
:101F900002F188329A60BABF5869C00F00207047BA
:101FA0000040005823016745044B5A6942F0004243
:101FB0005A615869C043C00F704700BF00400058C5
:101FC00070B50546FFF70EFA124E04463369D90381
:101FD00013D43369DA0744BF012232614CF2FA327A
:101FE000134011D10B4E306910F480200BD0FFF755
:101FF000F9F9001BA842F6D304E0FFF7F3F9001B40
:10200000A842E3D3032070BD024A1361024A0120B3
:102010005360F8E700400058F80100202DE9F04136
:10202000184D98462B78012B06460C46174626D0AD
:1020300001232B704FF47A7000236B60FFF7C0FF11
:10204000A0B9012E16D1104A536943F00103536120
:102050002760BFF36F8FC4F804804FF47A70FFF7E6
:10206000AFFF094A536923EA0603536100232B702B
:10207000BDE8F08139462046FFF76CFFEDE702200E
:10208000F6E700BFF801002000400058054A5369F8
:1020900023F47E7343EAC00040F4803040F0020035
:1020A00050617047004000582DE9F041234F3B78C4
:1020B000012B054688463FD001233B704FF47A70D0
:1020C00000237B60FFF77CFF044688B92B68042B54
:1020D00013D11B4A536943F4803343F00403536123
:1020E0004FF47A70FFF76CFF0446154B1A681B68B3
:1020F00000233B702046BDE8F0814FF0FF33C8F865
:1021000000306E68D5E901321344B3420AD9304633
:10211000FFF7BCFF4FF47A70FFF752FF50B1C8F8D9
:1021200000600446064A536923F47E7323F00203D9
:102130005361DAE70136E5E70224DBE7F801002026
:10214000004000582DE9F04F564C00234FF00F0887
:102150000A6832FA03F501D1BDE8F08F012505FACE
:1021600003F919EA020275D04E68032706F0030549
:102170004FEA430E07FA0EFC6F1E012F6FEA0C0C9C
:102180006AD8876807EA0C0ACF6807FA0EF747EAA9
:102190000A078760476827EA0909C6F300179F40C6
:1021A00047EA09074760C76807EA0C098F6807FA1A
:1021B0000EF747EA0907022DC76059D0076805FAEC
:1021C0000EF507EA0C073D4316F4403F056041D089
:1021D00023F0030707F1804707F5803703F0030C6E
:1021E000BD684FEA8C0C4FF0070E0EFA0CFEB0F1F2
:1021F000904F25EA0E0E51D02B4DA84250D005F538
:102200008065A84214BF0725022505FA0CF545EAAA
:102210000E05BD602568D74316F4801F0CBF3D40F6
:1022200015432560656816F4001F0CBF3D4015433B
:102230006560D4F8805016F4803F0CBF3D401543D4
:10224000C4F88050D4F88450B60354BF3D401543C1
:10225000C4F8845001337BE7032DAFD0C76807EA89
:102260000C098F6807FA0EF747EA0907C760A5E768
:102270004FEAD30900EB890903F0070AD9F8207067
:102280004FEA8A0A08FA0AFB27EA0B0B0F6907FADA
:102290000AF747EA0B07C9F820708FE70025B4E773
:1022A0000125B2E70008005800040048044AD1683C
:1022B000014208B502D0D06003F02CFE08BD00BF7B
:1022C0000008005803689A69910744BF00229A6287
:1022D0009A69D2075EBF9A6942F001029A6170471B
:1022E00030B5039D04682B4343EA0243064A606805
:1022F000C1F309010B4342EA555223F0004320EA9F
:1023000002000343636030BDFF63FF0370B5426B9F
:102310001F4CA2420BB201F0010501F002041DD0D6
:102320001C4EB2421AD01C4EB24217D0002BACBF8A
:102330000023B8230DB143F0F2030CB143F0F403D2
:10234000102902D143F0900303E0202901D143F08A
:10235000200301680A6813430B6070BD002BACBFFB
:102360000023B8230DB143F0F2030CB143F0F403A2
:102370001029E7D0202902D143F06003E9E7064C99
:10238000A242E6D0402908BF43F04003E1E700BF86
:10239000B92A0008B12D00089529000811F00103A1
:1023A00007D090F8413003F02803282B14BFF22304
:1023B00042238A0709D590F8412002F02802282AF2
:1023C0000CBF43F0440343F0F4030A0401680A68B5
:1023D00048BF43F0B80322EA03030B60704770471D
:1023E00010B5044698B10268242380F84130136880
:1023F00023F001031360FFF7F2FF0020606484F80C
:10240000400084F84100206384F8420010BD0120A0
:10241000FCE70000F8B51F4690F8413003F02803B0
:10242000282B04460E46154601D00120F8BD01B107
:102430001AB94FF400736364F7E748F20101FFF73C
:10244000ADFF90F84030012B40D0012380F84030A0
:1024500090F841302A2B14D10221FFF79FFF036827
:102460001A6810040DD51A68E06B22F400421A6055
:1024700038B1174B8363FFF735FD10B1E06B836B09
:102480009847292384F8413020682023002284F8CB
:1024900042306264436823F4004343606585638D82
:1024A0002385E7620B4B6363836981696662C903B5
:1024B00003D51B0744BF0823C361204684F840208E
:1024C00048F20101FFF722FF0020AFE70220ADE74D
:1024D000B92F0008A72E0008F8B51F4690F8413024
:1024E00003F02803282B04460E46154601D0012090
:1024F000F8BD01B11AB94FF400736364F7E748F20D
:102500000201FFF74BFF90F84030012B3FD090F8CD
:1025100041300121292B80F8401013D1FFF73EFFF5
:1025200003681A6850040DD51A68A06B22F4804223
:102530001A6038B1174B8363FFF7D4FC10B1A06B5E
:10254000836B98472A2384F8413020682023002297
:1025500084F842306264436823F400434360658535
:10256000638D2385E7620C4B6363836981696662CF
:10257000C90303D41B0744BF0823C361204684F862
:10258000402048F20201FFF7C1FE0020B0E7022020
:10259000AEE700BFB92F0008A72E000808B590F8D5
:1025A0004120202A0AD1282280F84120044A42638F
:1025B0004FF40041FFF7AAFE002008BD0220FCE70F
:1025C000A72E00080268436B9169126803B118478F
:1025D00070477047704738B5002580F8425090F832
:1025E0004130212B4FF0200380F841300AD11123D4
:1025F000036345630121FFF7D1FE80F84050FFF7E8
:10260000E8FF38BD1223036345630221FFF7C6FECE
:1026100080F84050FFF7DEFFF3E708B503681A685B
:10262000002180F84210510415D51A6822F4804226
:102630001A6090F84130292B13D1282380F84130BB
:10264000212303630121FFF7A9FE002380F8403016
:102650000CF048F908BD1204EBD51A6822F40042C8
:10266000E6E790F841302A2BF4D1282380F8413056
:10267000222303630221FFF791FE002380F84030FC
:102680000CF01DF9E6E790F8412002F02802282A14
:10269000F8B5036834D19E69C2689D699968DF689E
:1026A0002D0C022AC6F3004605F0FE051FD185EA6F
:1026B000D11515F00605C1F309020ED1816C013167
:1026C0008164816C022907D108218564D96180F871
:1026D000405031460CF0A6F8F8BD4FF40041FFF72A
:1026E0005DFE002380F8403007F0FE02F1E74FF472
:1026F0000041FFF753FE002380F840302A46E8E708
:102700000822DA61002380F84030E5E708B5164B6F
:10271000C362202200230363436380F8412080F8D2
:1027200042304B0712D503685A6A436A1A70436AEB
:1027300001334362038D4BB1013B0385438D013B64
:102740009BB24385436C43F00403436448F20301A6
:10275000FFF724FE03681022DA61002380F840307E
:102760000CF098F808BD00BF0000FFFF70477047ED
:10277000704790F84120602A08B54FF0000208D158
:10278000202180F8411080F840200263FFF7F0FF1D
:1027900008BD026380F840200CF0A8F8F8E70000BC
:1027A00070B500223D4D90F8413080F84220C5625E
:1027B0004285426C283B0A43022B044642642AD8D5
:1027C0000321FFF7EBFD282380F84130344BA06B49
:1027D0006363236B002841D0112B01D0212B3DD105
:1027E00023681A68510442BF1A6822F480421A60B2
:1027F000FFF7ADFB01282CD0A06B2A4B836300238D
:1028000084F84030FFF76EFB002845D0A06B836B47
:10281000BDE87040184748F20301FFF7BFFDFFF71E
:1028200051FD90F84130602B11D0202380F84130C9
:1028300003689A6995060AD59A69D00605D51022CB
:10284000DA61626C42F0040262642022DA610023E1
:10285000BDE72046BDE87040FFF78BBFE06B002866
:10286000F7D0122B01D0222BF3D123681A6812045F
:1028700042BF1A6822F400421A60FFF768FB012881
:10288000E7D0E06B074B8363002384F84030FFF709
:1028900029FB08B1E06BBAE770BD00BF0000FFFF85
:1028A000A72E0008B92F000873B505682023EB6137
:1028B00090F84130212B04460E4635D10121FFF717
:1028C0006DFD112323636B6823F0FF7323F48B33B7
:1028D00023F4FF7323F001036B6000236363F206AC
:1028E000A3F58033E36205D51023EB61636C43F0FD
:1028F0000403636494F84130602B05D1730741BF32
:102900006B6ADBB20193019B2046FFF7DBFC636C33
:1029100094F84120602A00D07BB1616C204602B05F
:10292000BDE87040FFF73CBF90F84130222BCAD180
:102930000221FFF733FD1223C4E794F84120212A36
:1029400012D1202284F84120236394F8422084F895
:102950004030402A84F8423003D1FFF707FF02B02D
:1029600070BDFFF736FEFAE794F84120222AF6D12F
:10297000202284F84120236394F8422084F84030D8
:10298000402A84F8423002D1FFF7F1FEE7E7FFF773
:1029900021FEE4E713B590F84030012B044600F027
:1029A0008580012380F84030CB0612D5D30610D5A0
:1029B00003681022DA61436C43F00403436420216E
:1029C000FFF7A4FCFFF77EFC002084F8400002B073
:1029D00010BD880708D5930706D52368226D9A6233
:1029E0004FF0FF332365EFE7080633D5530631D5A3
:1029F00010212046FFF78AFC638D9BB233B3638DB1
:102A00009BB2FF2B18D90023FF22E16C2285009393
:102A10004FF0807389B2FFF763FC638D228D9B1AA0
:102A20009BB2638594F841202368222A1A6832D128
:102A300042F400421A60C7E7628DE16C92B2002353
:102A400022850093D2B24FF00073E3E74021FFF7F5
:102A5000A7FEB9E7480621D553061FD594F84110C3
:102A6000134A144B222918BF1346628D92B2FF2AD3
:102A700008D9FF22E16C228500934FF0807389B260
:102A80002046C8E7628DE16C92B222850093D2B2F3
:102A90004FF00073F3E742F48042CBE7880693D50A
:102AA000930691D52046FFF7FFFE8DE702208EE7C3
:102AB000002000800024008073B590F84030012B86
:102AC000044678D0012380F84030CB0612D5D606D4
:102AD00010D503681022DA61436C43F004034364A9
:102AE0002021FFF713FCFFF7EDFB002084F84000E6
:102AF00002B070BD0D0641D550063FD525682B6844
:102B000023F040032B60638D9BB25BB36968638DD8
:102B10009BB2FF2BC1F309011AD9FF2323854FF084
:102B200080730022268D009294F828202046FFF71B
:102B3000D7FB638D9B1B9BB2638594F84130222B9E
:102B40002B680CBF43F4004343F480432B60CCE775
:102B5000638D2385E36A13F5803F14BFE36A4FF06A
:102B60000073DEE76B689A0103D42046FFF733FD5C
:102B7000BBE740212046FFF713FEB6E74B0612D510
:102B8000560610D5638D9BB2002BF2D123685A688C
:102B90009501AAD4E26A12F5803FE6D15A6842F460
:102BA00080425A60A1E788069FD593069DD52046AE
:102BB000FFF77AFE99E702209AE7036899691A6895
:102BC00010B4CC0508D5140606D5446C44F00104B5
:102BD00044644FF48074DC614C0508D5140606D5B6
:102BE000446C44F0080444644FF48064DC6189055B
:102BF00008D5120606D5426C42F0020242644FF438
:102C00000072DA61416C11F00B0F02D010BCFFF7BB
:102C1000C7BD10BC704700002DE9F8430568D5F822
:102C20000090D0F82C8090F8417007F0F70720232F
:102C3000212F04460E46EB6164D148F20101FFF7F3
:102C4000ADFB27636B6843F400436B606B6823F054
:102C5000FF7323F48B3323F4FF7323F001036B60C2
:102C60002046FFF72FFB19F4804F50D02B6823F438
:102C700080432B60A36B1BB11B685B689BB26385B1
:102C800072070FD5636A6A6A1A70636A01336362F6
:102C9000238D2BB1013B2385638D013B9BB2638563
:102CA00026F00406638D9BB21BB1636C43F00403F2
:102CB0006364F30611D519F0100F0ED0638D9BB22B
:102CC000002B3ED194F84130282B29D1B8F1007F58
:102CD00026D131462046FFF719FD002384F8423003
:102CE000656C6363002D3BD0616C2046FFF758FD97
:102CF00094F84130282B45D131462046BDE8F843B1
:102D0000FFF704BD222F9DD148F2020197E719F485
:102D1000004FB5D02B6823F400432B60E36BAAE788
:102D200094F841202368292A4FF01002DA61D4D1A7
:102D300018F5803FD1D02046FFF7C4FAFFF76DFCAD
:102D4000CBE723681022DA61636C43F00403636409
:102D500038F08073C1D1616C2046FFF721FDBCE7DC
:102D6000E36A13F5803F0FD02046FFF756FC0F4B68
:102D7000E362202384F8413084F8405025632046E4
:102D80000BF088FDBDE8F88394F8413084F840509A
:102D9000222B4FF0200384F841302046256302D1D6
:102DA0000BF08DFDEEE70BF09DFDEBE70000FFFF64
:102DB00070B590F84060C56A012E04460B4670D08D
:102DC000012680F840608E0607D5960605D5FFF7E8
:102DD00023FF002084F8400070BDD80659D5D106E5
:102DE00057D512F4404F50D0D4E90E10E0B921B1BC
:102DF000520402D50A6852680AB323681022DA61C5
:102E0000636C43F00403636494F8413035F08072DE
:102E1000DBB2DED1213B092B30D8DFE803F02D34C3
:102E20002F2F2F2F2F2F2D341604E0D50068406848
:102E30000028DCD119B1500444BF0A68526894F8E4
:102E40004120282A07D1B5F1007F04D11946204638
:102E5000FFF75CFCBDE794F841202368292A4FF076
:102E60001002DA61B5D115F5803FB2D02046FFF7E8
:102E700029FAFFF7D2FBACE721232363616C2046DC
:102E8000FFF78EFCA5E72223F7E723681022DA611B
:102E90009FE719079DD513079BD52046FFF7F3FB46
:102EA00097E7022098E770B590F84060C56A012E58
:102EB00004460B467ED0012680F840608E0607D57A
:102EC000960605D5FFF7A8FE002084F8400070BDE7
:102ED000D90630D5D6062ED5628D92B2E2B994F8D5
:102EE0004120282A07D1B5F1007F04D11946204698
:102EF000FFF70CFCE8E794F841202368292A4FF0FB
:102F00001002DA61E0D115F5803FDDD02046FFF7F1
:102F1000D9F9FFF782FBD7E723681022DA61636CE7
:102F200043F00403636435F08073CDD1616C2046B7
:102F3000FFF736FCC8E758071BD5510719D5638D35
:102F40009BB26BB123685A6A636A1A70636A013371
:102F50006362238D013B2385638D013B9BB26385B7
:102F6000638D9BB2002BAFD115F5803FACD02046CE
:102F7000CFE71E0705D5100703D52046FFF783FBD3
:102F8000A2E79907A0D593079ED5638D9BB26BB13D
:102F9000636A226813F8011B91626362638D013BCF
:102FA0009BB26385238D013B23858DE735F08073CC
:102FB0008AD1DCE702208AE7806A836B0BB10022AA
:102FC0009A63C36B0BB100229A63FFF7D2BB000078
:102FD000024A136843F4807313607047000400587A
:102FE000024B186800F4C060704700BF000400582E
:102FF000024A936823F4004393607047000400582A
:10300000054A136843F007031360044A136943F049
:103010000403136130BF70470004005800ED00E066
:103020004FF0B0431868C0F3404070474FF0B043D2
:103030001868C0F3400070474FF0B042536823F463
:103040007F4343EA0023536070474FF0B043186852
:10305000C0F34060704700007FB54FF0B0432C4A8A
:10306000D3F80831C0F3031003F00F0352F82040E7
:10307000284A52F82330B4FBF3F4FFF7B1FF264B94
:10308000054693E80700B5F5007F04AB03E90700A8
:1030900010D0224B9C4218D303F5B70303F67F539D
:1030A0009C4229D903F5741303F510639C4225D87B
:1030B00002230BE01A4B9C4207D91A4B9C421BD9A6
:1030C00003F5370303F5D853F0E7002304AA02EB16
:1030D000830353F80C4C144D2B6823F00703234350
:1030E0002B60FEF77FF906462B6803F007039C422E
:1030F00006D1002004B070BD0123E7E70024EAE711
:10310000FEF770F9801B0228EED90320F2E700BF1A
:1031100068160208C8160208B0100208C0CF6A007C
:10312000BFEA21013F933402004000584FF0B04302
:1031300010B59A68D96812F00C0205D00C2A4AD151
:1031400001F00303012B51D14FF0B0412B480B6824
:1031500013F0080306D00B6813F0080337D1D1F839
:10316000941007E00C68240756BFD1F89430096822
:10317000C3F3032350F82330002A0CBF1846002065
:103180004FF0B0418A6802F00C020C2A1ED1CA68C6
:1031900002F00302022A2ED0032A06D10B68184A35
:1031A00013F4801F174B18BF13464FF0B042D0687E
:1031B000D168D268C0F306205843C1F3021301332B
:1031C000B0FBF3F0530F0133B0FBF3F010BD0B680D
:1031D000C3F30313CEE7042A05D0082A06D11B68DF
:1031E00013F4801305D006480023C9E700231846CE
:1031F000C6E70448C4E7024BD7E700BF68160208D9
:103200000024F4000048E80108B5FFF78FFF4FF0F5
:10321000B043044A9B68C3F3031352F82330B0FB56
:10322000F3F008BDC81602082DE9F0410446002855
:1032300053D04FF0B0439D68DE680368990605F0EF
:103240000C0506F0030668D5026A1DB10C2D46D1A7
:10325000012E44D1002A40D04FF0B043A16A1A6831
:10326000120756BFD3F894301B681B0903F0F00314
:1032700099421FD90846FFF7EFFE00282DD14FF0E5
:10328000B042136843F0080313601368A16A23F087
:10329000F0030B431360606AFFF7CEFEFFF7B4FF45
:1032A000AC4B1860AC4B1868FEF754F8002834D0CB
:1032B000BDE8F0814FF0B042136843F0080313609B
:1032C000136823F0F0030B431360606AFFF7B4FE4A
:1032D0000846FFF7C1FE0028E0D00120E8E74FF0E4
:1032E000B043002A54D01A6842F001021A60FEF777
:1032F00079F80746FFF79AFE002842D04FF0B04217
:10330000136843F0080313601368A16A23F0F00305
:103310000B431360606AFFF78FFE2368DF0748D412
:103320002368980700F1A18023681E0740F1FC8004
:10333000A3694FF0B046002B00F0E380D6F894303C
:10334000E16903F01002914200F0C68003F003022D
:10335000022AC2D0D80740F1B580D6F8943023F0C5
:103360000103C6F89430FEF73DF80746D6F89430CE
:10337000990740F1A780FEF735F8C31B112BF5D94B
:1033800004E0FEF72FF8C01B0228B3D903208FE713
:103390001A6822F001021A60FEF724F80746FFF7C8
:1033A00045FE0028B9D0FEF71DF8C01B0228F6D94B
:1033B000ECE7082D626803D00C2D1AD1032E18D12A
:1033C000002A8AD09907AFD523694FF0B046002B69
:1033D00067D0336843F480733360FEF703F8074621
:1033E00033685A0555D4FDF7FDFFC31B022BF7D9EF
:1033F000CCE74FF0B043A068196821F48011014375
:10340000B2F5803F196010D11A6842F480321A6018
:10341000FDF7E8FF0746FFF703FE002880D1FDF720
:10342000E1FFC01B6428F6D9B0E7B2F5041F04D150
:103430001A6842F400121A60E6E7196821F4803134
:103440001960196821F400111960002AE0D1FDF714
:10345000C9FF0746FFF7E4FD00283FF461AFFDF721
:10346000C1FFC01B6428F5D990E7042D03D00C2DB3
:10347000AAD1022EA8D12369002B3FF42EAF4FF022
:10348000B0426169536823F0FE4343EA016353602D
:103490004AE77368626923F0FE4343EA026373609C
:1034A00042E7336823F480733360FDF79BFF0746E0
:1034B00033685B057FF538AFFDF794FFC31B022B24
:1034C000F6D963E74FF0B042E169D2F8943023F0C7
:1034D00010030B43C2F894304FF0B047D7F8943044
:1034E00043F00103C7F89430FDF77CFF0646D7F898
:1034F00094309A0718D4FDF775FF831B112BF6D96A
:1035000044E7D6F8943023F00103C6F89430FDF771
:1035100069FF0746D6F894309B0705D5FDF762FF93
:10352000C31B112BF6D931E72368580754D50B4F2D
:103530003B68D90514D4FFF74BFDFDF753FF064652
:103540003B68DA050CD4FDF74DFF831B022BF7D93E
:103550001CE700BF400000200400002000040058C9
:10356000E3684FF0B046002B58D023F08003052BC2
:1035700002BFD6F8903043F00403C6F890304FF005
:10358000B046FDF72FFFD6F8903043F00103074611
:10359000C6F8903041F28838D6F890309B0705D4B1
:1035A000FDF720FFC31B4345F6D9EFE6E36823F0A0
:1035B0000403812B1BD1FDF715FFD6F8903043F0A3
:1035C0008003C6F8903007464FF0B04641F2883885
:1035D000D6F89030180504D5E36A002B4AD10020B4
:1035E00066E6FDF7FFFEC01B4045F1D9CEE6FDF7CC
:1035F000F9FED6F8903023F08003C6F890300746E5
:103600004FF0B04641F28838D6F890301905E3D52E
:10361000FDF7E8FEC01B4045F6D9B7E6FDF7E2FE30
:10362000D6F8903023F080030746C6F8903041F278
:103630008838D6F890301A0516D4FDF7D3FED6F8A0
:10364000903023F00103C6F8903007464FF0B048A1
:1036500041F28836D8F890309B07BDD5FDF7C2FE01
:10366000C31BB342F6D991E6FDF7BCFEC01B404533
:10367000DFD98BE60C2D4ED0022B4FF0B0431A68E9
:1036800022F080721A6033D1FDF7ACFE0546FFF7D9
:10369000DCFC38BBD4E90C314FF0B0420B43D068AE
:1036A0002D4901400B43E16B0B43216C0B43616CD3
:1036B0000B43A16B43EA0123D360136843F080738B
:1036C0001360D36843F08053D360FDF78BFE04464C
:1036D000FFF7BBFC002882D1FDF784FE001B0A28FF
:1036E000F6D953E6FDF77EFE401B0A28CFD94DE6FA
:1036F000FDF778FE0446FFF7A8FC30B94FF0B04262
:10370000164BD1680B40D36069E7FDF76BFE001BD9
:103710000A28F0D93AE6012B3FF4DFAD4FF0B04371
:10372000D868236B00F003029A427FF4D6AD626B37
:1037300000F0700393427FF4D0ADA26B00F4FE431F
:10374000B3EB022F7FF4C9AD636C00F06040C01A88
:1037500018BF0120ACE500BF8C80C111FCFFFEEE5C
:103760002DE9F0410D46044610B90120BDE8F08175
:10377000684E336803F007038B4216D323689A0719
:1037800027D54FF0B047A268BB6823F0F00313437E
:10379000BB60FDF727FE0646BB68DB0319D4FDF7C7
:1037A00021FE831B022BF7D911E0336823F00703B6
:1037B0000B433360FDF716FE0746336803F007033B
:1037C000AB42DBD0FDF70EFEC01B0228F5D903206B
:1037D000CCE72368580617D54FF0B0476269D7F891
:1037E000083123F00F0343EA1213C7F80831FDF73D
:1037F000F9FD0646D7F80831D90305D4FDF7F2FDE7
:10380000831B022BF6D9E2E723685A0713D54FF042
:10381000B047E268BB6823F4E0631343BB60FDF785
:10382000E1FD0646BB689B0305D4FDF7DBFD831B6A
:10383000022BF7D9CBE72368180714D54FF0B04710
:103840002269BB6823F4605343EAC203BB60FDF7FF
:10385000C9FD0646BB68590305D4FDF7C3FD831BAC
:10386000022BF7D9B3E72368DA070FD4294C236872
:1038700003F00703AB4239D8FFF7C6FC264B1860AC
:10388000264BBDE8F0411868FDF764BD6268022A66
:103890001DD1FFF7C5FB00283FF467AF4FF0B046DE
:1038A00041F28838B36823F003031343B360FDF794
:1038B00099FD0746B368626803F00C03B3EB820F0F
:1038C000D4D0FDF78FFDC01B4045F3D97FE7032A15
:1038D00002D1FFF7BAFBDEE712B9FFF7A7FBDAE781
:1038E0004FF0B0431B685B05D8D43EE7236823F054
:1038F00007032B432360FDF775FD0646236803F09D
:103900000703AB42B8D0FDF76DFD801B0228F5D947
:103910005DE700BF00400058400000200400002088
:1039200008B5FFF703FC4FF0B043054AD3F8083160
:1039300003F00F0352F82330B0FBF3F008BD00BFD3
:10394000C816020808B5FFF75FFC4FF0B043044A01
:103950009B68C3F3022352F82330D84008BD00BF50
:10396000A816020808B5FFF74FFC4FF0B043044A11
:103970009B68C3F3C22352F82330D84008BD00BF70
:10398000A816020810B5D8B1D1B14F234FF0B042FC
:103990000360936803F00C04446003F0F004846057
:1039A00003F4E06403F46053C4600361D2F80831A7
:1039B0001B01DBB24361034B1B6803F007030B6081
:1039C00010BD00BF00400058704770B50446002885
:1039D00066D0436A002B5FD14268B2F5827F00D087
:1039E000C3610023A36294F85D3003F0FF0223B9A2
:1039F00084F85C202046FFF7E7FF2268E068A668AD
:103A0000A169022384F85D30136823F0400313603A
:103A1000B0F5E06F4FF000038ABF1D464FF48055AC
:103A2000B0F5706F18BFA362636806F4044603F430
:103A300082733343266906F002063343666906F053
:103A40000106334301F400763343E66906F0380695
:103A50003343266A06F080063343A66A06F400560E
:103A600033431360666B636A06F0080603F01003C5
:103A700000F470603343090C034301F004010B436D
:103A80002B435360D36923F40063D36100200123E7
:103A9000206684F85D3070BD0023C0E90433A0E7E0
:103AA0000120F8E7704710B5044680B10268022390
:103AB00080F85D30136823F040031360FFF7F2FFD6
:103AC0000020206684F85C0084F85D0010BD0120B1
:103AD000FCE7022310B580F83D300368196A41F213
:103AE00011121142044608D1196A40F244421142AF
:103AF00002BF1A6822F001021A60204602F0FBFCA5
:103B0000002084F8480084F83C0084F83E0084F8E3
:103B10003F0084F8400084F8410084F8420084F8B3
:103B2000430084F8440084F8450084F8460084F893
:103B3000470084F83D0010BD90F83D30012B17D1AF
:103B400002230C4A80F83D300368934202D0B3F15F
:103B5000804F07D19968084A0A40062A06D0B2F574
:103B6000803F03D01A6842F001021A6000207047BB
:103B700001207047002C0140070001000368196A0A
:103B800041F21112114208D1196A40F24442114225
:103B900002BF1A6822F001021A60012380F83D304A
:103BA000002070470368DA6822F00102DA60196ABF
:103BB00041F21112114208D1196A40F244421142F5
:103BC00002BF1A6822F001021A60012380F83D301A
:103BD0000020704790F83C20012A03464FF0020075
:103BE00009D01A6883F83D0051610020012283F852
:103BF0003D2083F83C00704770477047036870B5FC
:103C0000DD681E69B20704460DD5A9070BD56FF014
:103C100002021A61012202779B699A0774D001F0AF
:103C200052FE00232377730710D568070ED523684B
:103C30006FF004021A61022222779B6913F4407F1D
:103C4000204667D001F03FFE0023237731070FD5D0
:103C50002A070DD523686FF008021A610422227723
:103C6000DB699B0720465BD001F02DFE0023237704
:103C7000F00610D5E9060ED523686FF010021A6120
:103C800008222277DB6913F4407F20464ED001F0F2
:103C90001AFE00232377F20708D5EB0706D5236821
:103CA0006FF001021A61204601F0EAFD300608D5E6
:103CB000290606D523686FF080021A61204600F0BD
:103CC00002FAF20508D52B0606D523686FF4807238
:103CD0001A61204600F0F8F9700608D5690606D585
:103CE00023686FF040021A612046FFF786FFB20694
:103CF00022D5AB0620D523686FF0200220461A613A
:103D0000BDE8704000F0DEB901F0DBFD2046FFF7B2
:103D100073FF86E701F0D5FD2046FFF76DFF93E7BF
:103D200001F0CFFD2046FFF767FF9FE701F0C9FDD7
:103D30002046FFF761FFACE770BD00001B4A036837
:103D4000904202D0B0F1804F08D14A6823F070034E
:103D50001343CA6823F44073134306E0144A9042A5
:103D6000F7D002F580629042F3D04A6923F08003D5
:103D7000134303608B68C3620B6883620B4B9842EA
:103D800007D003F5C053984203D003F580639842EF
:103D900001D10B690363012343610369DB0742BF60
:103DA000036923F001030361704700BF002C014049
:103DB0000044014010B5044650B390F83D3003F084
:103DC000FF021BB980F83C2002F06EFB0223206842
:103DD00084F83D30211DFFF7B1FF012384F84830FE
:103DE000002084F83E3084F83F3084F8403084F876
:103DF000413084F8423084F8433084F8443084F809
:103E0000453084F8463084F8473084F83D3010BDA2
:103E10000120FCE7036A01F01F0110B501248C406A
:103E200023EA04030362036A8A401A43026210BD54
:103E3000082908B525D00AD8A9B1042919D090F8C5
:103E40004330012B13D1022380F843302CE00C299E
:103E50001FD01029F3D190F84230012B07D1022353
:103E600080F8423020E090F83E30012B19D001203C
:103E700043E090F83F30012BF9D1022380F83F3026
:103E800012E090F84030012BF1D1022380F840304D
:103E90000AE090F84130012BE9D1022380F841304B
:103EA00002E0022380F83E3000680122FFF7B2FFF3
:103EB000124B984214D003F5C05398420BD003F52F
:103EC0008063984207D0B0F1804F0DD0036843F073
:103ED0000103036010E0436C43F400434364F5E7DF
:103EE000436C43F4004343648268054B1340062B44
:103EF00002D0B3F5803FE9D1002008BD002C01407D
:103F000007000100FFF794BF082910B503465AD0F7
:103F100010D809B3042946D093F8434093F84720BA
:103F2000012CE0B2D2B26FD1012A3BD1022283F838
:103F3000432065E00C2956D01029EDD190F842407D
:103F400093F84720012CE0B2D2B25DD1012A29D1E9
:103F5000022283F8422053E090F83E4093F8442038
:103F6000012CE0B2D2B24FD1012A1BD1022283F838
:103F70003E2083F8442018680122FFF74BFF234BB3
:103F8000984202D0B0F1804F07D18268204B134095
:103F9000062B06D0B3F5803F03D0036843F001033E
:103FA0000360002010BD90F83F4093F84520012C9D
:103FB000E0B2D2B228D1012AF4D1022283F83F2004
:103FC00083F84520D7E790F8404093F84620012C2D
:103FD000E0B2D2B218D1012AE4D1022283F8402003
:103FE00083F84620C7E790F8414093F84720012C1A
:103FF000E0B2D2B208D1012AD4D1022283F8412002
:10400000022283F84720B6E70120CBE7002C0140CD
:1040100007000100036A01F01F0110B504248C4061
:1040200023EA04030362036A8A401A43026210BD52
:1040300008B529B990F84430012B1DD0012039E092
:10404000042907D190F84530012BF7D1022380F8DD
:10405000453014E0082907D090F84730012BEDD106
:10406000022380F847300AE090F84630012BE5D172
:10407000022380F8463002E0022380F844300068D2
:104080000422FFF7C7FF436C43F4004343640A4B29
:10409000984202D0B0F1804F07D18268074B13409D
:1040A000062B06D0B3F5803F03D0036843F001032D
:1040B0000360002008BD00BF002C01400700010084
:1040C000FFF7B6BF704770477047000010B5026831
:1040D00052E8003F23F4907342E80031026800295F
:1040E000F5D10F4C02F1080353E8003F234002F1E1
:1040F000080C4CE800310029F4D1C36E012B07D124
:1041000052E8003F23F0100342E800310029F7D1C4
:104110002023C0F88C300023C366436710BD00BF66
:10412000FEFFFFEF026852E8003F23F0800342E801
:10413000003102680029F5D152E8003F43F0400306
:1041400042E800310029F7D17047D0F88820212AB1
:10415000034611D1B0F8562092B20AB9FFF7E2BF78
:10416000026D016812F8010B88621A65B3F85620D7
:10417000013A92B2A3F856207047D0F88820212A3D
:10418000034613D1B0F8562092B20AB9FFF7CABF5E
:104190001A6D006832F8021BC1F3080181621A65CA
:1041A000B3F85620013A92B2A3F856207047D0F8DF
:1041B0008830212B10B51BD1B0F86A20C2B1B0F8FD
:1041C0005610036889B2A1B903F1080252E8002F22
:1041D00022F4000203F1080040E800210029F3D195
:1041E00053E8002F42F0400243E800210029F7D1B4
:1041F00010BDD96909060AD5016D11F8014B9C6201
:10420000B0F856300165013B9BB2A0F85630013A38
:1042100092B2D3E7D0F88830212B10B51BD1B0F87B
:104220006A20C2B1B0F85610036889B2A1B903F18F
:10423000080252E8002F22F4000203F1080040E8CF
:1042400000210029F3D153E8002F42F0400243E857
:1042500000210029F7D110BDD96909060CD5016DDF
:1042600031F8024BC4F308049C62B0F85630016583
:10427000013B9BB2A0F85630013A92B2D1E77047A9
:10428000D0F88830202B10B544D1002944D0002A22
:1042900042D0A0F85620A0F85420426E01650023B9
:1042A000C0F89030B2F1005F4FF02103C0F88830C1
:1042B0000268836819D1B3F5805F14D10469174B84
:1042C0001749002C08BF0B46836702F1080353E827
:1042D000003F43F4000302F1080040E800310029E8
:1042E000F3D1002010BD0D4BEEE7B3F5805F0FD189
:1042F00004690C4B0C49002C08BF0B46836752E83D
:10430000003F43F0800342E800310029F7D1E8E79D
:10431000044BF3E70220E5E70120E3E7AF410008A3
:10432000154200084B4100087B41000808B5806A2F
:104330000023A0F85E30A0F8563002F011FC08BD52
:10434000704700000368D9691A682DE9F04140F60A
:104350000F0631429D68044610D18E0640F19780C9
:1043600002F0200605F080573E4300F09080436F36
:10437000002B00F08580BDE8F0411847AB4EAC48FB
:104380002E401040304300F08280CF0709D5D00581
:1043900007D501201862D4F8900040F00100C4F85D
:1043A00090008F0709D5E80707D502201862D4F8D6
:1043B000900040F00400C4F890004F0709D5E807CA
:1043C00007D504201862D4F8900040F00200C4F829
:1043D00090000F070BD502F02000304307D00820D3
:1043E0001862D4F8900040F00800C4F890000E0560
:1043F0000AD5500108D54FF400601862D4F8903007
:1044000043F02003C4F89030D4F89030002B37D01C
:104410008B0609D502F0200205F080552A4303D00F
:10442000636F0BB1204698472668D4F89020B36894
:1044300002F0280203F0400353EA0205204621D08F
:10444000FFF744FEB3685F0617D5226802F1080340
:1044500053E8003F23F04003083242E800310029CE
:10446000F3D1D4F8800040B1724B8363FDF73AFD7D
:1044700030B1D4F88000836B7DE7204602F070FBFA
:10448000BDE8F08102F06CFBC4F89050F8E7E06EF4
:10449000012840F08980CE0640F18680D00640F1A8
:1044A000838010221A629A6851064BD5D4F8802076
:1044B00011684A6892B2002AE2D0B4F85C009042D7
:1044C000DED9A4F85E200A6892062FD453E8002FA4
:1044D00022F4807243E800210029F7D103F1080299
:1044E00052E8002F22F0010203F1080040E8002109
:1044F0000029F3D103F1080252E8002F22F0400214
:1045000003F1080040E800210029F3D12022C4F87B
:104510008C20E16653E8002F22F0100243E80021CE
:104520000029F7D1D4F88000FDF7A7FC0223236708
:10453000B4F85E30B4F85C10C91A89B22046FFF7AF
:10454000FFFE9DE7B4F85E20B4F85E00B4F85C109E
:1045500080B292B2002893D0891A89B200298FD0F4
:1045600053E8002F22F4907243E800200028F7D18E
:10457000314D03F1080252E8002F2A4003F10806EA
:1045800046E800200028F4D12022C4F88C2060677F
:10459000E06653E8002F22F0100243E800200028D4
:1045A000F7D102232367C9E7CF0209D56E0207D5E9
:1045B0004FF4801220461A62BDE8F04102F01ABBA7
:1045C00008060BD502F0800005F40005284305D04D
:1045D000A36F002B3FF454AF2046CCE64F0611D515
:1045E00056060FD553E8002F22F0400243E8002181
:1045F0000029F7D12023C4F88830A167204602F0B3
:10460000ABFA3DE70D0206D5500004D52046BDE8C3
:10461000F04100F032BECB017FF532AF002ABFF689
:104620002FAF2046BDE8F04100F026BE010000108B
:10463000200100042D430008FEFFFFEFD0F88C207E
:10464000B0F86010222A08B5036855D15B6A826D04
:104650000B401370836D01338365B0F85E30013B0E
:104660009BB2A0F85E30B0F85E309BB2002B42D116
:10467000026852E8003F23F4907342E80031036877
:104680000029F5D103F1080252E8002F22F00102BF
:1046900003F1080C4CE800210029F3D12022C0F8D6
:1046A0008C20184A41679342016705D1C26E012AE6
:1046B0000ED002F04DFA1EE05A681102F6D553E80A
:1046C000002F22F0806243E800210029F7D1EDE7B6
:1046D0000022C26653E8002F22F0100243E80021B6
:1046E0000029F7D1DA69B0F85C10D20644BF102275
:1046F0001A62FFF725FE08BD9A6942F008029A6126
:10470000F9E700BF00800040D0F88C20B0F86010BE
:10471000222A08B5036852D15A6A1140826D22F8E4
:10472000021B8265B0F85E20013A92B2A0F85E20CA
:10473000B0F85E2092B2002A40D153E8002F22F454
:10474000907243E800210029F7D103F1080252E8F2
:10475000002F22F0010203F1080C4CE8002100298F
:10476000F3D12022C0F88C20174A41679342016799
:1047700005D1C26E012A0ED002F0EAF91EE05A6895
:104780001102F6D553E8002F22F0806243E80021A1
:104790000029F7D1EDE70022C26653E8002F22F08E
:1047A000100243E800210029F7D1DA69B0F85C1063
:1047B000D20644BF10221A62FFF7C2FD08BD9A69F3
:1047C00042F008029A61F9E7008000402DE9F84FB5
:1047D0000368B0F86060D3F81CB01F689D68D0F81B
:1047E0008C20222A044640F0B980B0F8683043B1EA
:1047F000DFF87491DFF874A14FF000081BF0200F70
:1048000020D1B4F85E309BB2D3B1B4F868209A429C
:1048100016D9226802F1080353E8003F23F08053C1
:10482000083242E8003122680029F2D1504B636718
:1048300052E8003F43F0200342E800310029F7D15D
:10484000BDE8F88F2368A26D5B6A33401370A36DD7
:104850000133A365B4F85E30013B9BB2A4F85E302F
:104860002368D3F81CB01BF0070F2ED01BF0010FEC
:1048700009D0F90507D501221A62D4F8902042F038
:104880000102C4F890201BF0020F09D0EA0707D5F7
:1048900002221A62D4F8902042F00402C4F8902058
:1048A0001BF0040F09D0E80707D504221A62D4F8D8
:1048B000903043F00203C4F89030D4F8903023B124
:1048C000204602F04DF9C4F89080B4F85E309BB2F7
:1048D000002B93D1226852E8003F23F4807342E812
:1048E000003123680029F5D103F1080252E8002FB6
:1048F00002EA090203F1080040E800210029F3D18F
:1049000020225345C4F88C20616721670AD05A6879
:10491000110207D553E8002F22F0806243E80021FE
:104920000029F7D1E26E012A14D10022E26653E891
:10493000002F22F0100243E800210029F7D1DA69A4
:10494000B4F85C10D20644BF10221A622046FFF76A
:10495000F7FC53E7204602F0FBF84FE79A6942F074
:1049600008029A616CE700BFFEFFFFEF0080004085
:104970003D4600082DE9F84F0368B0F86060D3F8B1
:104980001CB01F689D68D0F88C20222A044640F095
:10499000B780B0F8683043B1DFF87091DFF870A1EC
:1049A0004FF000081BF0200F20D1B4F85E309BB20E
:1049B000D3B1B4F868209A4216D9226802F10803EC
:1049C00053E8003F23F08053083242E80031226868
:1049D0000029F2D14F4B636752E8003F43F02003B8
:1049E00042E800310029F7D1BDE8F88F2368A26DB5
:1049F000596A314022F8021BA265B4F85E20013AE0
:104A000092B2A4F85E20D3F81CB01BF0070F2ED092
:104A10001BF0010F09D0F90507D501221A62D4F85D
:104A2000902042F00102C4F890201BF0020F09D040
:104A3000EA0707D502221A62D4F8902042F0040255
:104A4000C4F890201BF0040F09D0E80707D5042212
:104A50001A62D4F8903043F00203C4F89030D4F8CE
:104A6000903023B1204602F07BF8C4F89080B4F86F
:104A70005E309BB2002B95D1226852E8003F23F4B0
:104A8000807342E8003123680029F5D103F1080260
:104A900052E8002F02EA090203F1080040E8002171
:104AA0000029F3D120225345C4F88C206167216787
:104AB0000AD05A68110207D553E8002F22F080620D
:104AC00043E800210029F7D1E26E012A14D1002227
:104AD000E26653E8002F22F0100243E8002100298B
:104AE000F7D1DA69B4F85C10D20644BF10221A621A
:104AF0002046FFF725FC55E7204602F029F851E74C
:104B00009A6942F008029A616EE700BFFEFFFFEF6C
:104B1000008000400947000810B590F88430012B50
:104B20001ED0012380F884302423C0F88830026826
:104B300052E8003F23F00C0342E800340168002CE7
:104B4000F5D151E8002F42F0080241E80023002B84
:104B5000F7D12022C0F8882080F88430184610BD94
:104B60000220FCE710B590F88430012B1ED0012301
:104B700080F884302423C0F88830026852E8003F6F
:104B800023F00C0342E800340168002CF5D151E811
:104B9000002F42F0040241E80023002BF7D120222D
:104BA000C0F8882080F88430184610BD0220FCE749
:104BB000D0F88820D0F88C001043704738B50446F0
:104BC00003682169A2681D68C0690A4361690A43D4
:104BD0007549024329400A431A605A68E16822F481
:104BE00040520A435A60714AA16993421CBF226A2B
:104BF00011439A6822F06E4222F430620A439A60AE
:104C0000DA6A616A22F00F020A43DA62684A934262
:104C100017D14FF0B043674AD3F8883003F003034D
:104C200043F4403393425BD0B3F1031F21D0013AE8
:104C3000934274D0B0F5004F40F0B080FEF792FE82
:104C400031E05D4A934231D14FF0B0435B49D3F834
:104C5000883003F00C0343F440228A4240D005D848
:104C6000E3B1574B9A425AD0012062E0B2F10C1FD7
:104C7000FAD1B0F5004F37D04FF400406368616A55
:104C8000504A32F81120B0FBF2F000EB5300B0FBB9
:104C9000F3F04FF6EF73A0F1100274E0B0F5004F9F
:104CA00077D1FEF74FFE002842D01DE03F4A9342E5
:104CB000DAD14FF0B043D3F8883003F44063B3F552
:104CC000006F3DD006D883B3B3F5806FCCD1FEF72B
:104CD0002DFA2CE0B3F5406FC6D14FF4004030E020
:104CE000B0F5004F3848C9D16268616A354B33F876
:104CF0001130B0FBF3F0530803EB4003B3FBF2F3C6
:104D00004FF6EF72A3F110019142ADD823F00F02DC
:104D1000216892B2C3F342031343CB6008E0B0F5BD
:104D2000004F3ED1FEF702FABDE7FEF70BFE40B999
:104D300000204FF00113A3660023C4E91D3338BDE2
:104D4000214865681F4B626A05EB450133F8122064
:104D5000B0FBF2F3994287D8B3EB053F84D8002328
:104D60001946FCF721FA090241EA10616B080002BA
:104D7000C0182A464FF0000341F10001FCF714FA75
:104D8000124BA0F540729A423FF66EAF2368D8608E
:104D9000CEE7FEF7D7FD0028CAD06FE7FEF7E2FDA9
:104DA000F9E7FEF7C3F9F6E7F369FFCF00800040AB
:104DB00000380140020003000044004008000C00DD
:104DC00004000C006C1502080024F400FFFC0F0026
:104DD000836A1A0710B506D50168846B4A6822F405
:104DE000004222434A60DC0706D50168C46A4A686B
:104DF00022F4003222434A60990706D50168046B09
:104E00004A6822F4803222434A605A0706D5016874
:104E1000446B4A6822F4802222434A60DC0606D5AD
:104E20000168C46B8A6822F4805222438A60990622
:104E300006D50168046C8A6822F4005222438A6015
:104E40005A060FD50168446C4A6822F48012224346
:104E5000B4F5801F4A6005D14A68846C22F4C00210
:104E600022434A601B0606D50268C16C536823F4CE
:104E700000230B43536010BD2DE9F843DDF820906B
:104E800005460E46174698462A68D36936EA030354
:104E90000CBF01230023BB4201D0002029E0B9F15F
:104EA000FF3FF2D0FCF79EFAA0EB080048452C68C3
:104EB00002D8B9F1000F1ED154E8003F23F4D0739B
:104EC00044E80032002AF7D104F1080353E8003F18
:104ED00023F0010304F1080141E80032002AF3D174
:104EE0002023C5F88830C5F88C30002385F884303D
:104EF0000320BDE8F88323685A07C5D5802EC3D0A8
:104F0000402EC1D0E3691B05BED54FF40063236278
:104F100054E8003F23F4D07344E80032002AF7D16C
:104F200004F1080353E8003F23F0010304F10801F2
:104F300041E80032002AF3D12023C5F88830C5F8B3
:104F40008C30C5F89030D0E72DE9F7439846D0F87B
:104F50008830202B04460E46174643D1002943D003
:104F6000002A41D021230025C0F89050C0F8883095
:104F7000FCF738FAA368A4F85470B3F5805F814653
:104F8000A4F8567003D123690BB935461E46B4F810
:104F90005620CDF8008092B24B4642B940212046BF
:104FA000FFF76AFF48B92023C4F8883006E00022E2
:104FB00080212046FFF760FF18B1032003B0BDE851
:104FC000F08322685EB935F8023BC3F308039362AD
:104FD000B4F85620013A92B2A4F85620D7E716F852
:104FE000013BF4E70220E9E70120E7E773B5044657
:104FF0000026C0F89060FCF7F5F923681B681A07D3
:10500000054619D423681B685B070AD56FF07E43F9
:10501000009300222B464FF480012046FFF72CFF1F
:10502000B0B900202023C4F8883084F88400C4F884
:105030008C30E06620670CE06FF07E4300933246D0
:1050400003464FF400112046FFF716FF0028D9D081
:10505000032002B070BD10B5044650B3D0F88830BC
:105060001BB980F88430FFF70AF922682423C4F8BA
:105070008830136823F001031360A36A13B120463C
:10508000FFF7A6FE2046FFF799FD012811D02368FF
:105090005A6822F490425A609A6822F02A029A6072
:1050A0001A6842F0010220461A60BDE81040FFF77E
:1050B0009DBF012010BD10B5044670B3D0F88830F4
:1050C0001BB980F88430FFF7DAF822682423C4F88B
:1050D0008830136823F001031360A36A13B12046DC
:1050E000FFF776FE2046FFF769FD012815D02368FB
:1050F0005A6822F490425A609A6822F022029A601A
:105100009A6842F008029A601A6842F0010220464A
:105110001A60BDE81040FFF769BF012010BD000014
:1051200030B581658168A0F85C200023B1F5805F0F
:10513000A0F85E20436731D10369002B40F2FF13D2
:1051400018BFFF23A0F860300023C0F8903022235E
:10515000C0F88C30016801F1080353E8003F43F0C8
:105160000103083141E800340368002CF2D1456E98
:1051700084680169B5F1005F35D1B0F86850954297
:1051800031D8B4F5805F29D1C1B1264A426753E8CE
:10519000002F42F4807243E8002121E029B903691D
:1051A000002B14BF7F23FF23CCE7B1F1805FC9D16F
:1051B0000369002B14BF3F237F23C3E71A4A4267CA
:1051C00003F1080252E8002F42F0805203F1080078
:1051D00040E800210029F3D1002030BD114A426788
:1051E0000029D4D1ECE7B4F5805F16D151B10F4A54
:1051F000426753E8002F42F4907243E800210029EF
:10520000F7D1E9E70A4A426753E8002F42F020024B
:1052100043E800210029F7D1DEE7044A426700296C
:10522000F2D0E6E7CD470008754900083D46000882
:1052300009470008D0F88C30202B30B415D1B9B113
:10524000B2B100230468C3660A4B9C420AD063686B
:105250001B0207D554E8003F43F0806344E8003563
:10526000002DF7D130BCFFF75BBF022030BC704788
:105270000120FBE7008000407047704790F88430C1
:10528000012B0FD0012380F88430016851E8002FF2
:1052900042F0020241E80023002BF6D180F884306E
:1052A000184670470220704790F88430012B0FD0C9
:1052B000012380F88430016851E8002F22F00202B7
:1052C00041E80023002BF6D180F88430184670475F
:1052D00002207047836810B504462BB103220146B3
:1052E00098470023C4E9023310BD836810B5044613
:1052F00013B1032201469847204610BD10B504465D
:1053000050F8103FDA6822F00102DA60DA6822F021
:105310000202DA60DA6822F00402DA60DA6822F067
:105320000802DA60DA6822F01002DA60FEF726FC82
:105330002269136823F001031360012384F84E30BF
:1053400084F84F3084F8503084F8513084F852306B
:1053500084F8533084F8543084F8553084F856304B
:1053600084F8573010BD4B1E032B00D9FEE789008F
:10537000081F70470139435C13F0100004D0022964
:1053800016D80C4A32F81100DB0712D503290FD8C2
:10539000DFE801F00205080B40F00100704740F023
:1053A0001000704740F48070704740F480507047A0
:1053B000FEE770478C1502080139032900D9FEE782
:1053C000014B585C704700BF88150208013903295A
:1053D00000D9FEE7014B585C704700BF84150208F6
:1053E0002DE9F04104460E46FFF7BDFF04EB061819
:1053F00008F16408054631462046FFF7DDFFD8F87E
:1054000008302BB12369C2431A61DA680243DA60BB
:10541000771E04EB47039B880B2B49D8DFE803F08A
:1054200051181818060618184A4A4A2AE35DDE067B
:1054300004D5294604F11000FEF742FEE35DD807CB
:1054400036D5294604F11000BDE8F041FEF75ABDFB
:10545000E35DD90604D5294604F11000FEF7E8FD06
:10546000E35DDA0724D5294604F11000BDE8F041D8
:10547000FEF7DEBC294604F11000FEF745FD31467B
:105480002046FFF7A3FF2569014606462046FFF7A1
:1054900071FF2B6A1843D8F80830286243B13146AF
:1054A0002046FFF789FFC3432B61EB681843E86090
:1054B000BDE8F081294604F11000BDE8F041FEF797
:1054C00023BD23691B68DB07F2D404F11000BDE89B
:1054D000F041FEF731BB70B501250446861C294614
:1054E00036F8023F23B129462046FFF779FF002115
:1054F0000135052DF4D1E36E3BB123696FF0010254
:105500001A61DA6842F00102DA6049B123691B6866
:10551000DB0705D404F11000BDE87040FEF70CBBBA
:1055200070BD01211030FEF755BB0369186800F00B
:105530000100704710B502460C46FFF7F6FF80B930
:10554000CB68DB070ED5CB6823F00103CB60104698
:10555000FFF7E7FF6FF001032361E36843F0010306
:10556000E36010BDBDE810401046FFF7DABF000051
:105570000B4B98420BD0B0F1804F0AD003F5C053CB
:10558000984208D003F58063984206D0FEE70020D9
:10559000704701207047022070470320704700BF0A
:1055A000002C0140024670B5044652F8100FFFF778
:1055B000DFFF0546104600F009FF094A002342F8C4
:1055C000253004F16406E36004F1B405B54204D06B
:1055D000103D2846FFF789FEF8E7204670BD00BF62
:1055E0001002002070B504460846FFF7C1FF256988
:1055F00005B1FEE7204B216104F10C0243F82020A5
:1056000004F110060E23C4E917353046C4E90C55E1
:10561000C4E90E55C4E9105584F82C50A56484F8EB
:105620004C5084F84D50E46000F0A4FE04F1640096
:10563000FFF750FE04F17400FFF74CFE04F1840004
:10564000FFF748FE04F19400FFF744FE04F1A400C4
:10565000FFF740FEC4E900554FF6FF73C4E9065357
:105660008023C4E90855A5606561A3623046BDE8A2
:105670007040FEF79FBB00BF1002002010B588B03D
:1056800018220446002102A81AF031FD002301A9C6
:1056900002A80193FEF776F9206900F03DFF01288A
:1056A00002D002280FD0FEE7059CFEF74BF9B4F5B7
:1056B000C06F05D00BD824F48074B4F5806F00D18E
:1056C000400008B010BD069CFEF74CF9EFE7B4F5BA
:1056D000E06FF4E7012A38B505460C460BD0022AE4
:1056E00016D004B1013C29692846CC62EC61BDE8C2
:1056F0003840FFF71FBFFFF7C1FF084BB0FBF3F0C7
:1057000044432A69230C93620133B4FBF3F4E8E7C2
:10571000FFF7B4FFB0FBF4F4F3E700BF40420F0023
:1057200010B500F110042046FEF73CFA2046BDE813
:105730001040FEF7CEB90000034B186810B10430DA
:10574000FEF75CBA704700BF10020020FFF7F4BFFD
:10575000034B586810B10430FEF750BA704700BFD1
:1057600010020020034B986810B10430FEF746BACF
:10577000704700BF10020020034BD86810B10430FE
:10578000FEF73CBA704700BF100200200022C0E9BB
:105790000022C0E902227047F8B504460E4600F127
:1057A000640500F1B40728461035FFF7EFFFBD424E
:1057B000F9D10023204623613146FFF713FF20462D
:1057C000F8BD38B50023C0E90033C0E902338B6867
:1057D00004460D462BB102229847EB68E360AB68A4
:1057E000A360204638BD30B587B002AD04462846D8
:1057F000FFF7E7FF95E803006B4683E8030094E8B2
:10580000030085E8030093E80300049BA268A360FB
:10581000059B049284E80300E268E3602846059251
:10582000FFF763FD07B030BD38B504460D46E36EA3
:1058300064301BB1BDE83840FFF7D5BFFFF7D3FF99
:10584000AB683BB123696FF001021A61DA6842F07C
:105850000102DA6038BD826810B50AB917F0D4FFCA
:10586000BDE81040C368184708B500B9FEE700F06E
:105870007FFD0068C36E13B16430FFF7ECFF08BD15
:10588000FFF7F2BF10B500B9FEE7037F013B072B1E
:1058900010D8DFE803F004140F100F0F0F120124CB
:1058A00000F066FD240100686434204483680BB175
:1058B000FFF7D1FF10BD0324F2E70424F0E7022430
:1058C000EEE7FFF7DFBFFFF7DDBF1AF07BB81AF096
:1058D00079B81AF07FB84FF0B04382B0DA6C024367
:1058E000DA64DB6C03400193019B02B07047000057
:1058F00008B5032818D8DFE800F002080D120120CF
:10590000FFF7E9FF4FF0904008BD0220FFF7E3FFEB
:105910000648F9E70420FFF7DEFF0548F4E780209A
:10592000FFF7D9FF0348EFE70020EDE70004004848
:1059300000080048001C004808B5064900F0E0FCDB
:10594000C0F3C430112800D9FEE7034B53F8200000
:1059500008BD00BF68140208A0150208A0F5805019
:105960000138022800D9FEE7014B53F820007047A8
:105970009415020808B5054900F0C2FCC0F3C43014
:10598000012800D0FEE7002008BD00BF5014020827
:105990000268094B9A420DD14FF0B0439A6B42F026
:1059A00000529A639A6B22F000529A639A6D22F029
:1059B00000529A65704700BF0074004010B50A4954
:1059C00086B0044600F07AFC019050B12046FFF703
:1059D000D1FF014628B901A8FCF741FA01A8FCF75C
:1059E00030FA06B010BD00BF501402084FF0B043AB
:1059F00082B01A6E42F400721A661A6E02F40072D5
:105A00000192019AD3F8882042F04052C3F88820CE
:105A1000044B1868C30403D4034902B000F036BC39
:105A200002B0704718000020681402084FF0B0431D
:105A30001A6C42F400721A641A6C22F400721A642E
:105A40001A6C42F400721A641A6C22F400721A641E
:105A50001A6E22F400721A6670470000F0B59FB00B
:105A6000054664220E4605A800211AF040FB0023DB
:105A7000EA04CDE902330493ADF80230019340F11A
:105A8000AC8041F203039D4200F2A7805D4B059379
:105A90002846FFF763FF07270446082E00F0AE8074
:105AA0000A2E00F0AD80062E0CBF182300234FF005
:105AB0000042CDE906230023CDE908320422CDE9D6
:105AC0000E330A92ADF82C3001228DF82E308DF86D
:105AD00034308DF840308DF8503018931B93199363
